S015000043727970746F547261636B65722E73726563C2
S11300000C9434000C9449000C9449000C9449005D
S11300100C9449000C9449000C9449000C94490038
S11300200C9449000C9449000C9449000C94490028
S11300300C9449000C9449000C9449000C94490018
S11300400C9449000C9449000C9449000C94490008
S11300500C9449000C9449000C9449000C944900F8
S11300600C9449000C94490011241FBECFEFD8E032
S1130070DEBFCDBF11E0A0E0B1E0E8EAF4E002C0E9
S113008005900D92A831B107D9F70E9489010C940B
S113009052020C9400001092C50087E68093C400BD
S11300A0E2ECF0E0808186608083E1ECF0E0808126
S11300B08861808308958091C0008823E4F780914B
S11300C0C60090E00895CF92DF92EF92FF920F93D3
S11300D01F93CF93DF93CDB7DEB72A970FB6F8946B
S11300E0DEBF0FBECDBF6C010E945B0000E010E0DC
S11300F014C04AE050E0BE016F5F7F4F0E940A02C5
S11301007601E00EF11ECE0101960E94EC01F7018A
S113011080830F5F1F4F0E945B008A30910549F76F
S1130120C6012A960FB6F894DEBF0FBECDBFDF918D
S1130130CF911F910F91FF90EF90DF90CF90089592
S113014098B1977F98B988231CF498B1986098B9AE
S113015098B19B7F98B986FF03C098B1946098B911
S113016098B19D7F98B985FF03C098B1926098B902
S113017098B19E7F98B984FF03C088B1816088B923
S113018085B1886085B985E08A95F1F7000085B16D
S1130190877F85B985E08A95F1F700000895CF93AC
S11301A0C82F85B1806285B985B1877F85B98C2FC9
S11301B00E94A0008C2F8295807F0E94A000CF9186
S11301C008950F931F93CF93DF9300D0CDB7DEB77D
S11301D08C011A82198212C0E981FA81E00FF11FA1
S11301E080810E94CF0089819A8101969A838983B4
S11301F08FE391E00197F1F700C00000E981FA81F3
S1130200E00FF11F80818111E7CF0F900F90DF91F4
S1130210CF911F910F910895CF93C82F85B18F7DF2
S113022085B985B1877F85B98C2F0E94A0008C2F5A
S11302308295807F0E94A000CF91089580EC0E9457
S11302400C018FE391E00197F1F700C000000895DD
S11302502FEF81EE94E0215080409040E1F700C000
S1130260000085B18F7D85B985B1877F85B980E32D
S11302700E94A0008FE39CE90197F1F700C0000001
S113028080E30E94A0008FE193E00197F1F700C0A2
S1130290000080E30E94A0008FE193E00197F1F752
S11302A000C0000088E20E94A0008FE391E0019763
S11302B0F1F700C0000088E20E940C018FE391E096
S11302C00197F1F700C0000088E00E940C018FE361
S11302D091E00197F1F700C0000081E00E940C0159
S11302E08FE79EE30197F1F700C0000086E00E94CB
S11302F00C018FE391E00197F1F700C000008CE05E
S11303000E940C018FE391E00197F1F700C0000017
S11303100895CF93DF93CDB7DEB72A970FB6F8943D
S1130320DEBF0FBECDBF87B1886087B987B1846057
S113033087B987B1826087B987B1816087B984B191
S1130340886084B984B1806284B90E9428010E94C3
S11303504B0080E091E00E94E1000E941E018BE0CE
S113036091E00E94E1002FEF83E294EF215080405E
S11303709040E1F700C0000081E00E940C01EFEF23
S1130380F7EE23E0E150F0402040E1F700C0000028
S11303908E010F5F1F4F8AE0F80111928A95E9F7E9
S11303A0C8010E946300C8010E94E100FFEF23E23C
S11303B084EFF15020408040E1F700C0000081E06C
S11303C00E940C019FEFE7EEF3E09150E040F04013
S11303D0E1F700C00000DCCFFC0188279927E894EE
S11303E021912032E9F3293010F02E30C8F32B325A
S11303F041F02D3239F4689404C00E942002820F27
S1130400911D219120532A30C0F31EF490958195BB
S11304109F4F08954532510520F4423010F00C945A
S11304201502FB011082CB010895BB274A3031F439
S1130430992322F4BDE2909581959F4F0C94290253
S11304407AE0979F902D879F802D910D1124089518
S1130450BB27FB015527AA27880F991FAA1FA4179A
S113046010F0A41B83955051B9F7A05DAA3308F08E
S1130470A95DA193009779F7B111B1931192CB01C2
S11304800C944202DC01FC01672F71917723E1F7A0
S1130490329704C07C916D9370836291AE17BF074D
S10B04A0C8F30895F894FFCF9E
S11304A857656C636F6D6520746F0043727970745F
S10B04B86F5469636B65720067
S9030000FC
