S015000043727970746F547261636B65722E73726563C2
S11300000C9434000C9451000C9451000C94510045
S11300100C9451000C9451000C9451000C94510018
S11300200C9451000C9451000C9451000C94510008
S11300300C9451000C9451000C9451000C945100F8
S11300400C9451000C9451000C9451000C945100E8
S11300500C9451000C9451000C9451000C945100D8
S11300600C9451000C94510011241FBECFEFD8E022
S1130070DEBFCDBF11E0A0E0B1E0E2EBFBE002C0E7
S113008005900D92AE31B107D9F721E0AEE1B1E0B0
S113009001C01D92A032B207E1F70E94DB010C946B
S11300A0D7050C9400001092C50087E68093C40025
S11300B0E2ECF0E0808186608083E1ECF0E0808116
S11300C08861808308958091C0008823E4F780913B
S11300D0C60090E00895CF92DF92EF92FF920F93C3
S11300E01F93CF93DF93CDB7DEB72A970FB6F8945B
S11300F0DEBF0FBECDBF6C010E94630000E010E0C4
S113010014C04AE050E0BE016F5F7F4F0E94A50219
S11301107601E00EF11ECE0101960E945B02F7010A
S113012080830F5F1F4F0E9463008837910549F752
S1130130C6012A960FB6F894DEBF0FBECDBFDF917D
S1130140CF911F910F91FF90EF90DF90CF90089582
S1130150EF92FF920F931F93CF93DF9300D0CDB70D
S1130160DEB77B012CE230E03A832983BE016F5F66
S11301707F4F0E94790200E010E028C0A801440FDC
S1130180551F9801220F331F220F331F220F331FD5
S1130190240F351F9F938F9380E091E09F938F935B
S11301A0C701820F931F9F938F930E94DD020F5FFD
S11301B01F4FBE016F5F7F4F80E090E00E94790285
S11301C00F900F900F900F900F900F900097B1F633
S11301D0C7010F900F90DF91CF911F910F91FF9066
S11301E0EF90089598B1977F98B988231CF498B13B
S11301F0986098B998B19B7F98B986FF03C098B16D
S1130200946098B998B19D7F98B985FF03C098B15F
S1130210926098B998B19E7F98B984FF03C088B161
S1130220816088B985B1886085B985E08A95F1F7E0
S1130230000085B1877F85B985E08A95F1F70000D4
S11302400895CF93C82F85B1806285B985B1877F22
S113025085B98C2F0E94F2008C2F8295807F0E949A
S1130260F200CF9108950F931F93CF93DF9300D0A3
S1130270CDB7DEB78C011A82198212C0E981FA81E6
S1130280E00FF11F80810E94210189819A810196EA
S11302909A8389838FE391E00197F1F700C000000E
S11302A0E981FA81E00FF11F80818111E7CF0F907E
S11302B00F90DF91CF911F910F910895CF93C82F85
S11302C085B18F7D85B985B1877F85B98C2F0E94D3
S11302D0F2008C2F8295807F0E94F200CF910895C6
S11302E080EC0E945E018FE391E00197F1F700C07A
S11302F0000008952FEF81EE94E02150804090405B
S1130300E1F700C0000085B18F7D85B985B1877F95
S113031085B980E30E94F2008FE39CE90197F1F72D
S113032000C0000080E30E94F2008FE193E0019797
S1130330F1F700C0000080E30E94F2008FE193E037
S11303400197F1F700C0000088E20E94F2008FE3F9
S113035091E00197F1F700C0000088E20E945E017D
S11303608FE391E00197F1F700C0000088E00E945C
S11303705E018FE391E00197F1F700C0000081E096
S11303800E945E018FE79EE30197F1F700C0000031
S113039086E00E945E018FE391E00197F1F700C0CF
S11303A000008CE00E945E018FE391E00197F1F779
S11303B000C000000895CF93DF93CDB7DEB7C659D0
S11303C0D1090FB6F894DEBF0FBECDBF87B18860E8
S11303D087B987B1846087B987B1826087B987B1EB
S11303E0816087B984B1886084B984B1806284B93A
S11303F00E947A010E94530085E091E00E9433013B
S11304000E94700180E191E00E9433012FEF83E2AA
S113041094EF215080409040E1F700C0000081E05B
S11304200E945E012FEF87EE93E0215080409040C0
S1130430E1F700C00000CE018B599F4F0E946B0072
S1130440BE016F5F7F4FCE018B599F4F0E94A80062
S1130450CE0101960E9433012FEF83E294EF2150E5
S113046080409040E1F700C0000081E00E945E01FE
S11304702FEF87EE93E0215080409040E1F700C0D9
S11304800000CE010B960E9433012FEF83E294EF1C
S1130490215080409040E1F700C0000081E00E94BC
S11304A05E012FEF87EE93E0215080409040E1F70A
S11304B000C00000C0CFFC0188279927E89421914F
S11304C02032E9F3293010F02E30C8F32B3241F0FA
S11304D02D3239F4689404C00E94BB02820F911D2E
S11304E0219120532A30C0F31EF4909581959F4F9B
S11304F008954EE151E00E947E020895FA01A1910F
S1130500B081009719F41097E1F0CD01DC01CD0121
S11305100D90002011F4C00113C0FB01219122238E
S113052019F02015D9F7F3CFFB012191201519F407
S11305301E92119606C02223C1F70D900020A1F748
S1130540D001FA01A193B08308954532510520F4F6
S1130550423010F00C94B002FB011082CB010895DC
S1130560BB274A3031F4992322F4BDE2909581955A
S11305709F4F0C94C4027AE0979F902D879F802D03
S1130580910D11240895BB27FB015527AA27880F35
S1130590991FAA1FA41710F0A41B83955051B9F7F3
S11305A0A05DAA3308F0A95DA193009779F7B11172
S11305B0B1931192CB010C94F604AEE0B0E0E3EEFB
S11305C0F2E00C94AE050D891E8986E08C831A83B3
S11305D009838FEF9FE79E838D83AE01475E5F4F54
S11305E06F89788DCE0101960E94FF02EF81F88514
S11305F0E00FF11F10822E96E4E00C94CA05ABE0E4
S1130600B0E0E5E0F3E00C94A0056C017B018A0105
S1130610FC0117821682838181FFCCC1CE01019631
S11306203C01F6019381F70193FD859193FF81913C
S11306307F01882309F4BAC1853239F493FD859189
S113064093FF81917F01853229F4B60190E00E94E5
S11306500605E7CF912C212C312CFFE1F315D8F0BE
S11306608B3279F038F4803279F08332A1F4232D7F
S113067020611DC08D3261F0803369F4232D216027
S113068016C0832D8260382EE32DE4603E2E2AC0EE
S1130690F32DF8601DC037FC2DC020ED280F2A3043
S11306A040F08E32B9F436FC81C1232D2064322E01
S11306B019C036FE06C08AE0989E200D1124922EA1
S11306C011C0EAE02E9E200D1124222EF32DF0629B
S11306D03F2E08C08C3621F4832D8068382E02C04A
S11306E0883641F4F70193FD859193FF81917F0151
S11306F08111B3CF982F9F7D9554933028F40C5FCC
S11307001F4F9FE399830DC0833631F0833771F017
S1130710833509F059C021C0F801808189830E5FB7
S11307201F4F88248394912C530113C02801F2E0B5
S11307304F0E511CF801A080B18036FE03C0692D14
S113074070E002C06FEF7FEFC5010E94EB044C0123
S11307508201F32DFF773F2E16C0280122E0420EBE
S1130760511CF801A080B18036FE03C0692D70E0F1
S113077002C06FEF7FEFC5010E94E0044C01F32D2E
S1130780F0683F2E820133FC1BC0822D90E0881656
S11307909906B0F4B60180E290E00E9406052A941E
S11307A0F4CFF50137FC859137FE81915F01B601E5
S11307B090E00E94060521102A9421E0821A9108F3
S11307C08114910471F7E8C0843611F0893641F53B
S11307D0F80137FE07C060817181828193810C5FCB
S11307E01F4F08C060817181072E000C880B990B84
S11307F00E5F1F4FF32DFF763F2E97FF09C0909594
S11308008095709561957F4F8F4F9F4FF0683F2E75
S11308102AE030E0A3010E944205882E861845C0D4
S1130820853731F4232D2F7EB22E2AE030E025C007
S1130830932D997FB92E8F36C1F018F4883579F04D
S1130840B5C0803719F0883721F0B0C0E92FE061D6
S1130850BE2EB4FE0DC0FB2DF460BF2E09C034FEC5
S11308600AC0292F2660B22E06C028E030E005C059
S113087020E130E002C020E132E0F801B7FE07C019
S113088060817181828193810C5F1F4F06C06081FA
S1130890718180E090E00E5F1F4FA3010E9442052A
S11308A0882E8618FB2DFF773F2E36FE0DC0232D94
S11308B02E7FA22E891458F434FE0BC032FC09C0DA
S11308C0832D8E7EA82E05C0B82CA32C03C0B82C73
S11308D001C0B92CA4FE0FC0FE01E80DF11D8081FA
S11308E0803321F49A2D997EA92E09C0A2FE06C058
S11308F0B394B39404C08A2D867809F0B394A3FC0E
S113090011C0A0FE06C0B21488F4280C922C9B18C7
S11309100EC0B21460F4B60180E290E00E940605B5
S1130920B394F7CFB21418F42B1802C0982C212CCE
S1130930A4FE10C0B60180E390E00E940605A2FE6A
S113094017C0A1FC03C088E790E002C088E590E0EE
S1130950B6010CC08A2D867859F0A1FE02C08BE244
S113096001C080E2A7FC8DE2B60190E00E9406057A
S1130970891438F4B60180E390E00E9406059A9445
S1130980F7CF8A94F301E80DF11D8081B60190E060
S11309900E9406058110F5CF222009F442CEB6014B
S11309A080E290E00E9406052A94F6CFF601868143
S11309B0978102C08FEF9FEF2B96E2E10C94BC0568
S11309C0FC010590615070400110D8F78095909516
S11309D08E0F9F1F0895FC0161507040019001101B
S11309E0D8F7809590958E0F9F1F0895DC01FC0128
S11309F0672F71917723E1F7329704C07C916D934F
S1130A0070836291AE17BF07C8F308950F931F93C5
S1130A10CF93DF93FB01238121FD03C08FEF9FEF71
S1130A202CC022FF16C0468157812481358142178C
S1130A30530744F4A081B1819D012F5F3F4F31835F
S1130A4020838C93268137812F5F3F4F3783268302
S1130A5014C08B01EC01FB010084F185E02D0995A4
S1130A60892BE1F6D80116968D919C9117970196E2
S1130A7017969C938E931697CE01DF91CF911F9179
S1130A800F910895FA01AA27283051F1203181F1FC
S1130A90E8946F936E7F6E5F7F4F8F4F9F4FAF4F82
S1130AA0B1E03ED0B4E03CD0670F781F891F9A1F95
S1130AB0A11D680F791F8A1F911DA11D6A0F711D49
S1130AC0811D911DA11D20D009F468943F912AE055
S1130AD0269F11243019305D3193DEF6CF0108953D
S1130AE0462F4770405D4193B3E00FD0C9F7F6CF6E
S1130AF0462F4F70405D4A3318F0495D31FD405236
S1130B00419302D0A9F7EACFB4E0A69597958795CB
S1130B1077956795BA95C9F70097610571050895AA
S1130B209B01AC010A2E0694579547953795279556
S1130B30BA95C9F7620F731F841F951FA01D0895EE
S1130B402F923F924F925F926F927F928F929F92D9
S1130B50AF92BF92CF92DF92EF92FF920F931F93C7
S1130B60CF93DF93CDB7DEB7CA1BDB0B0FB6F89478
S1130B70DEBF0FBECDBF09942A88398848885F84B8
S1130B806E847D848C849B84AA84B984C884DF8029
S1130B90EE80FD800C811B81AA81B981CE0FD11D0D
S1130BA00FB6F894DEBF0FBECDBFED010895F894E3
S1050BB0FFCF71
S1130BB22025730A0057656C636F6D6520746F009E
S1110BC243727970746F5469636B657200003E
S9030000FC
