S015000043727970746F547261636B65722E73726563C2
S11300000C9434000C9453000C9451000C94510043
S11300100C9451000C9451000C9451000C94510018
S11300200C9451000C9451000C9451000C94510008
S11300300C9451000C9451000C9451000C945100F8
S11300400C9451000C9451000C9451000C945100E8
S11300500C9451000C9451000C9451000C945100D8
S11300600C9451000C94510011241FBECFEFD8E022
S1130070DEBFCDBF11E0A0E0B1E0E6E4FCE002C0E9
S113008005900D92A033B107D9F721E0A0E3B1E0C8
S113009001C01D92A433B207E1F70E94FD010C9444
S11300A021060C9400001F920F920FB60F92112498
S11300B08F939F938091320190913301009719F0AF
S11300C0019741F00BC081E090E09093330180935D
S11300D0320104C010923301109232019F918F912A
S11300E00F900FBE0F901F9018951092C50087E6D1
S11300F08093C400E2ECF0E0808186608083E1ECD0
S1130100F0E080818861808308958091C000882315
S1130110E4F78091C60090E00895CF92DF92EF92C9
S1130120FF920F931F93CF93DF93CDB7DEB72A9738
S11301300FB6F894DEBF0FBECDBF6C010E948500E0
S113014000E010E014C04AE050E0BE016F5F7F4F52
S11301500E94EF027601E00EF11ECE0101960E948C
S1130160A502F70180830F5F1F4F0E9485008A302C
S1130170910549F7C6012A960FB6F894DEBF0FBE63
S1130180CDBFDF91CF911F910F91FF90EF90DF9042
S1130190CF900895EF92FF920F931F93CF93DF9325
S11301A000D0CDB7DEB77B012CE230E03A8329835F
S11301B0BE016F5F7F4F0E94C30200E010E028C0C1
S11301C0A801440F551F9801220F331F220F331F1C
S11301D0220F331F240F351F9F938F9384E191E0E7
S11301E09F938F93C701820F931F9F938F930E94B6
S11301F027030F5F1F4FBE016F5F7F4F80E090E0CA
S11302000E94C3020F900F900F900F900F900F90C9
S11302100097B1F6C7010F900F90DF91CF911F9116
S11302200F91FF90EF90089598B1977F98B9882324
S11302301CF498B1986098B998B19B7F98B986FFDF
S113024003C098B1946098B998B19D7F98B985FF1F
S113025003C098B1926098B998B19E7F98B984FF11
S113026003C088B1816088B985B1886085B985E0AB
S11302708A95F1F7000085B1877F85B985E08A9575
S1130280F1F700000895CF93C82F85B1806285B936
S113029085B1877F85B98C2F0E9414018C2F82959C
S11302A0807F0E941401CF9108950F931F93CF93E1
S11302B0DF9300D0CDB7DEB78C011A82198212C049
S11302C0E981FA81E00FF11F80810E944301898155
S11302D09A8101969A8389838FE391E00197F1F7DC
S11302E000C00000E981FA81E00FF11F80818111D3
S11302F0E7CF0F900F90DF91CF911F910F91089549
S1130300CF93C82F85B18F7D85B985B1877F85B996
S11303108C2F0E9414018C2F8295807F0E941401DF
S1130320CF91089580EC0E9480018FE391E00197C2
S1130330F1F700C0000008952FEF81EE94E0215002
S113034080409040E1F700C0000085B18F7D85B901
S113035085B1877F85B980E30E9414018FE39CE90E
S11303600197F1F700C0000080E30E9414018FE1BF
S113037093E00197F1F700C0000080E30E941401AC
S11303808FE193E00197F1F700C0000088E20E943A
S113039014018FE391E00197F1F700C0000088E2B7
S11303A00E9480018FE391E00197F1F700C0000003
S11303B088E00E9480018FE391E00197F1F700C08B
S11303C0000081E00E9480018FE79EE30197F1F72E
S11303D000C0000086E00E9480018FE391E0019755
S11303E0F1F700C000008CE00E9480018FE391E0EF
S11303F00197F1F700C000000895CF93DF93CDB7C4
S1130400DEB7CA5AD1090FB6F894DEBF0FBECDBF0E
S113041084E1E0E0F1E0DE01119601900D928A950D
S1130420E1F787B1886087B987B1846087B987B1FC
S1130430826087B987B1816087B984B1816084B9EA
S113044084B1886084B984B1806284B90E949C01BB
S11304500E94750088E191E00E9455010E9492017A
S113046083E291E00E9455012FEF33E284EF2150A3
S113047030408040E1F700C0000081E00E9480012C
S11304809FEF27EE33E0915020403040E1F700C069
S11304900000E9E6F0E08081816080838DB38160B3
S11304A08DBB7894CE0187589F4F0E948D00BE016A
S11304B06B5E7F4FCE0187589F4F0E94CA0081E038
S11304C00E9480018FEF97EE23E0815090402040FE
S11304D0E1F700C000002091320130913301C901DD
S11304E0880F991F220F331F220F331F220F331F30
S11304F0820F931F21E030E02C0F3D1F820F931FCA
S11305000E9455010E9492013FEF87EE93E0315023
S113051080409040E1F700C000002091320130910A
S11305203301C901880F991F220F331F220F331F74
S1130530220F331F820F931F25E130E02C0F3D1F44
S1130540820F931F0E945501ADCFFC018827992784
S1130550E89421912032E9F3293010F02E30C8F3C9
S11305602B3241F02D3239F4689404C00E94050303
S1130570820F911D219120532A30C0F31EF49095CF
S113058081959F4F089540E351E00E94C802089569
S1130590FA01A191B081009719F41097E1F0CD010F
S11305A0DC01CD010D90002011F4C00113C0FB014A
S11305B02191222319F02015D9F7F3CFFB012191C2
S11305C0201519F41E92119606C02223C1F70D902E
S11305D00020A1F7D001FA01A193B0830895453218
S11305E0510520F4423010F00C94FA02FB01108201
S11305F0CB010895BB274A3031F4992322F4BDE29C
S1130600909581959F4F0C940E037AE0979F902DBF
S1130610879F802D910D11240895BB27FB01552739
S1130620AA27880F991FAA1FA41710F0A41B83954B
S11306305051B9F7A05DAA3308F0A95DA1930097C2
S113064079F7B111B1931192CB010C944005AEE04E
S1130650B0E0EDE2F3E00C94F8050D891E8986E024
S11306608C831A8309838FEF9FE79E838D83AE016A
S1130670475E5F4F6F89788DCE0101960E944903D2
S1130680EF81F885E00FF11F10822E96E4E00C94C0
S11306901406ABE0B0E0EFE4F3E00C94EA056C017F
S11306A07B018A01FC0117821682838181FFCCC100
S11306B0CE0101963C01F6019381F70193FD8591EA
S11306C093FF81917F01882309F4BAC1853239F4FB
S11306D093FD859193FF81917F01853229F4B601C1
S11306E090E00E945005E7CF912C212C312CFFE1A2
S11306F0F315D8F08B3279F038F4803279F0833204
S1130700A1F4232D20611DC08D3261F0803369F482
S1130710232D216016C0832D8260382EE32DE460E2
S11307203E2E2AC0F32DF8601DC037FC2DC020EDED
S1130730280F2A3040F08E32B9F436FC81C1232DC3
S11307402064322E19C036FE06C08AE0989E200D21
S11307501124922E11C0EAE02E9E200D1124222E87
S1130760F32DF0623F2E08C08C3621F4832D80686F
S1130770382E02C0883641F4F70193FD859193FF2A
S113078081917F018111B3CF982F9F7D9554933030
S113079028F40C5F1F4F9FE399830DC0833631F01B
S11307A0833771F0833509F059C021C0F801808185
S11307B089830E5F1F4F88248394912C530113C0A7
S11307C02801F2E04F0E511CF801A080B18036FEE2
S11307D003C0692D70E002C06FEF7FEFC5010E9476
S11307E035054C018201F32DFF773F2E16C02801F9
S11307F022E0420E511CF801A080B18036FE03C0F5
S1130800692D70E002C06FEF7FEFC5010E942A05D9
S11308104C01F32DF0683F2E820133FC1BC0822D66
S113082090E088169906B0F4B60180E290E00E9448
S113083050052A94F4CFF50137FC859137FE819158
S11308405F01B60190E00E94500521102A9421E036
S1130850821A91088114910471F7E8C0843611F06A
S1130860893641F5F80137FE07C0608171818281C4
S113087093810C5F1F4F08C060817181072E000CAB
S1130880880B990B0E5F1F4FF32DFF763F2E97FFBA
S113089009C090958095709561957F4F8F4F9F4FBC
S11308A0F0683F2E2AE030E0A3010E948C05882ED8
S11308B0861845C0853731F4232D2F7EB22E2AE0C9
S11308C030E025C0932D997FB92E8F36C1F018F4EE
S11308D0883579F0B5C0803719F0883721F0B0C079
S11308E0E92FE061BE2EB4FE0DC0FB2DF460BF2ED7
S11308F009C034FE0AC0292F2660B22E06C028E0A3
S113090030E005C020E130E002C020E132E0F8012F
S1130910B7FE07C060817181828193810C5F1F4F94
S113092006C06081718180E090E00E5F1F4FA301DB
S11309300E948C05882E8618FB2DFF773F2E36FEED
S11309400DC0232D2E7FA22E891458F434FE0BC023
S113095032FC09C0832D8E7EA82E05C0B82CA32C92
S113096003C0B82C01C0B92CA4FE0FC0FE01E80DD1
S1130970F11D8081803321F49A2D997EA92E09C01E
S1130980A2FE06C0B394B39404C08A2D867809F0FD
S1130990B394A3FC11C0A0FE06C0B21488F4280CC2
S11309A0922C9B180EC0B21460F4B60180E290E061
S11309B00E945005B394F7CFB21418F42B1802C058
S11309C0982C212CA4FE10C0B60180E390E00E9474
S11309D05005A2FE17C0A1FC03C088E790E002C046
S11309E088E590E0B6010CC08A2D867859F0A1FE06
S11309F002C08BE201C080E2A7FC8DE2B60190E068
S1130A000E945005891438F4B60180E390E00E94F6
S1130A1050059A94F7CF8A94F301E80DF11D808173
S1130A20B60190E00E9450058110F5CF222009F410
S1130A3042CEB60180E290E00E9450052A94F6CF9F
S1130A40F6018681978102C08FEF9FEF2B96E2E13A
S1130A500C940606FC010590615070400110D8F713
S1130A60809590958E0F9F1F0895FC0161507040F2
S1130A7001900110D8F7809590958E0F9F1F0895CF
S1130A80DC01FC01672F71917723E1F7329704C0F1
S1130A907C916D9370836291AE17BF07C8F308957C
S1130AA00F931F93CF93DF93FB01238121FD03C099
S1130AB08FEF9FEF2CC022FF16C0468157812481FF
S1130AC035814217530744F4A081B1819D012F5F02
S1130AD03F4F318320838C93268137812F5F3F4F93
S1130AE03783268314C08B01EC01FB010084F1855C
S1130AF0E02D0995892BE1F6D80116968D919C91EC
S1130B001797019617969C938E931697CE01DF91B3
S1130B10CF911F910F910895FA01AA27283051F11E
S1130B20203181F1E8946F936E7F6E5F7F4F8F4F1A
S1130B309F4FAF4FB1E03ED0B4E03CD0670F781F79
S1130B40891F9A1FA11D680F791F8A1F911DA11D5E
S1130B506A0F711D811D911DA11D20D009F4689497
S1130B603F912AE0269F11243019305D3193DEF63F
S1130B70CF010895462F4770405D4193B3E00FD0F5
S1130B80C9F7F6CF462F4F70405D4A3318F0495DE0
S1130B9031FD4052419302D0A9F7EACFB4E0A695C3
S1130BA09795879577956795BA95C9F700976105E5
S1130BB0710508959B01AC010A2E0694579547953B
S1130BC037952795BA95C9F7620F731F841F951F30
S1130BD0A01D08952F923F924F925F926F927F9241
S1130BE08F929F92AF92BF92CF92DF92EF92FF9239
S1130BF00F931F93CF93DF93CDB7DEB7CA1BDB0BE5
S1130C000FB6F894DEBF0FBECDBF09942A88398889
S1130C1048885F846E847D848C849B84AA84B98490
S1130C20C884DF80EE80FD800C811B81AA81B9819C
S1130C30CE0FD11D0FB6F894DEBF0FBECDBFED01B0
S1090C400895F894FFCFB3
S1130C46426974636F696E00000045746865726575
S1130C56756D00002025730057656C636F6D652004
S1130C66746F0043727970746F5469636B657200B4
S9030000FC
