S015000043727970746F547261636B65722E73726563C2
S11300000C9452000C9471000C946F000C946F00CB
S11300100C946F000C946F000C946F000C946F00A0
S11300200C946F000C946F000C946F000C946F0090
S11300300C946F000C946F000C946F000C946F0080
S11300400C946F000C946F000C946F000C946F0070
S11300500C946F000C946F000C946F000C946F0060
S11300600C946F000C946F004E414E494E49545904
S1130070494E46CDCCCC3D0AD7233C17B7D138776F
S1130080CC2B329595E6241FB14F0A000020410085
S113009000C84200401C4620BCBE4CCA1B0E5AAECF
S11300A0C59D740011241FBECFEFD8E0DEBFCDBFC5
S11300B011E0A0E0B1E0EAEEF2E102C005900D9299
S11300C0A233B107D9F721E0A2E3B1E001C01D9248
S11300D0A833B207E1F70E9441020C9473090C940F
S11300E000001F920F920FB60F9211248F939F93CB
S11300F08091340190913501009719F0019741F0F6
S11301000BC081E090E0909335018093340104C0EA
S1130110109235011092340181E090E09093010136
S1130120809300019F918F910F900FBE0F901F90AD
S1130130189520E030E01AC085B1816085B94FEF91
S113014082E597E0415080409040E1F700C0000014
S113015085B18E7F85B94FEF82E597E041508040AD
S11301609040E1F700C000002F5F3F4F2A30310577
S11301701CF308951092C50087E68093C400E2EC56
S1130180F0E0808186608083E1ECF0E0808188612A
S1130190808308958091C0008823E4F78091C6008D
S11301A090E00895CF92DF92EF92FF920F931F9306
S11301B0CF93DF93CDB7DEB72A970FB6F894DEBF9F
S11301C00FBECDBF6C010E94CA0000E010E013C056
S11301D04AE0BE016F5F7F4F0E94C0037601E00ECC
S11301E0F11ECE0101960E947603F70180830F5F12
S11301F01F4F0E94CA008A30910551F7C6012A9602
S11302000FB6F894DEBF0FBECDBFDF91CF911F9123
S11302100F91FF90EF90DF90CF900895EF92FF92AF
S11302200F931F93CF93DF9300D0CDB7DEB77B013D
S11302302CE230E03A832983BE016F5F7F4F0E9436
S1130240940300E010E028C0A801440F551F980152
S1130250220F331F220F331F220F331F240F351F8A
S11302609F938F9386E191E09F938F93C701820FB1
S1130270931F9F938F930E94ED030F5F1F4FBE0147
S11302806F5F7F4F80E090E00E9494030F900F9087
S11302900F900F900F900F900097B1F6C7010F9039
S11302A00F90DF91CF911F910F91FF90EF900895E0
S11302B098B1977F98B988231CF498B1986098B93D
S11302C098B19B7F98B986FF03C098B1946098B9A0
S11302D098B19D7F98B985FF03C098B1926098B991
S11302E098B19E7F98B984FF03C088B1816088B9B2
S11302F085B1886085B985E08A95F1F7000085B1FC
S1130300877F85B985E08A95F1F700000895CF933A
S1130310C82F85B1806285B985B1877F85B98C2F57
S11303200E9458018C2F8295807F0E945801CF91A2
S113033008950F931F93CF93DF9300D0CDB7DEB70B
S11303408C011A82198212C0E981FA81E00FF11F2F
S113035080810E94870189819A8101969A83898389
S11303608FE391E00197F1F700C00000E981FA8181
S1130370E00FF11F80818111E7CF0F900F90DF9183
S1130380CF911F910F910895CF93C82F85B18F7D81
S113039085B985B1877F85B98C2F0E9458018C2F30
S11303A08295807F0E945801CF91089580EC0E942D
S11303B0C4018FE391E00197F1F700C000000895B4
S11303C02FEF81EE94E0215080409040E1F700C08F
S11303D0000085B18F7D85B985B1877F85B980E3BC
S11303E00E9458018FE39CE90197F1F700C00000D7
S11303F080E30E9458018FE193E00197F1F700C078
S1130400000080E30E9458018FE193E00197F1F727
S113041000C0000088E20E9458018FE391E0019738
S1130420F1F700C0000088E20E94C4018FE391E06C
S11304300197F1F700C0000088E00E94C4018FE337
S113044091E00197F1F700C0000081E00E94C4012F
S11304508FE79EE30197F1F700C0000086E00E9459
S1130460C4018FE391E00197F1F700C000008CE034
S11304700E94C4018FE391E00197F1F700C00000EE
S11304800895CF93DF93CDB7DEB7CA5AD1090FB61B
S1130490F894DEBF0FBECDBF84E1E2E0F1E0DE01FF
S11304A0119601900D928A95E1F787B1886087B91A
S11304B087B1846087B987B1826087B987B1816069
S11304C087B984B1816084B984B1886084B984B106
S11304D0806284B90E94E0010E94BA008AE191E03E
S11304E00E9499010E94D60185E291E00E9499013F
S11304F02FEF33E284EF215030408040E1F700C019
S1130500000081E00E94C4019FEF27EE33E0915088
S113051020403040E1F700C00000E9E6F0E08081CF
S1130520836080838DB381608DBB7894C12CD12C82
S11305307601CE0187589F4F0E94D200BE016B5EA8
S11305407F4FCE0187589F4F0E940E01809100017A
S1130550909101010197E9F4209134013091350122
S1130560C901880F991F220F331F220F331F220F37
S1130570331F820F931F25E130E02C0F3D1F820FA4
S1130580931F0E9472036B017C011092010110926F
S113059000012091340130913501C901880F991F60
S11305A0220F331F220F331F220F331F820F931F7B
S11305B025E130E02C0F3D1F820F931F0E94720330
S11305C09B01AC01C701B6010E944903181614F43B
S11305D00E9499002091340130913501C901880F9E
S11305E0991F220F331F220F331F220F331F820F35
S11305F0931F25E130E02C0F3D1F820F931F0E94B3
S113060072036B017C0181E00E94C4013FEF87EE1D
S113061093E0315080409040E1F700C00000209109
S1130620340130913501C901880F991F220F331FFE
S1130630220F331F220F331F820F931F21E030E05C
S11306402C0F3D1F820F931F0E9499010E94D60117
S11306503FEF87EE93E0315080409040E1F700C0D7
S113066000002091340130913501C901880F991F90
S1130670220F331F220F331F220F331F820F931FAA
S113068025E130E02C0F3D1F820F931F0E9499013A
S113069050CF0E944E0308F48FEF0895990F00087D
S11306A0550FAA0BE0E8FEEF16161706E807F90740
S11306B0C0F012161306E407F50798F0621B730BDB
S11306C0840B950B39F40A2661F0232B242B252B5C
S11306D021F408950A2609F4A140A6958FEF811DFF
S11306E0811D0895662777270C94F005FC0188275F
S11306F09927E89421912032E9F3293010F02E3023
S1130700C8F32B3241F02D3239F4689404C00E94AE
S1130710CB03820F911D219120532A30C0F31EF484
S1130720909581959F4F089542E351E00E9499036B
S11307300895FA01A191B081009719F41097E1F09E
S1130740CD01DC01CD010D90002011F4C00113C0D6
S1130750FB012191222319F02015D9F7F3CFFB01D6
S11307602191201519F41E92119606C02223C1F777
S11307700D900020A1F7D001FA01A193B083089550
S1130780BB274A3031F4992322F4BDE29095819538
S11307909F4F0C94D4037AE0979F902D879F802DD0
S11307A0910D11240895BB27FB015527AA27880F13
S11307B0991FAA1FA41710F0A41B83955051B9F7D1
S11307C0A05DAA3308F0A95DA193009779F7B11150
S11307D0B1931192CB010C947507AEE0B0E0E3EF56
S11307E0F3E00C943B090D891E8986E08C831A83FF
S11307F009838FEF9FE79E838D83AE01475E5F4F32
S11308006F89788DCE0101960E940F04EF81F885DF
S1130810E00FF11F10822E96E4E00C945709ABE030
S1130820B0E0E5E1F4E00C942D096C017B018A0150
S1130830FC0117821682838181FFCCC1CE0101960F
S11308403C01F6019381F70193FD859193FF81911A
S11308507F01882309F4BAC1853239F493FD859167
S113086093FF81917F01853229F4B60190E00E94C3
S11308708507E7CF912C212C312CFFE1F315D8F01B
S11308808B3279F038F4803279F08332A1F4232D5D
S113089020611DC08D3261F0803369F4232D216005
S11308A016C0832D8260382EE32DE4603E2E2AC0CC
S11308B0F32DF8601DC037FC2DC020ED280F2A3021
S11308C040F08E32B9F436FC81C1232D2064322EDF
S11308D019C036FE06C08AE0989E200D1124922E7F
S11308E011C0EAE02E9E200D1124222EF32DF06279
S11308F03F2E08C08C3621F4832D8068382E02C028
S1130900883641F4F70193FD859193FF81917F012E
S11309108111B3CF982F9F7D9554933028F40C5FA9
S11309201F4F9FE399830DC0833631F0833771F0F5
S1130930833509F059C021C0F801808189830E5F95
S11309401F4F88248394912C530113C02801F2E093
S11309504F0E511CF801A080B18036FE03C0692DF2
S113096070E002C06FEF7FEFC5010E946A074C017F
S11309708201F32DFF773F2E16C0280122E0420E9C
S1130980511CF801A080B18036FE03C0692D70E0CF
S113099002C06FEF7FEFC5010E945F074C01F32D8A
S11309A0F0683F2E820133FC1BC0822D90E0881634
S11309B09906B0F4B60180E290E00E9485072A947B
S11309C0F4CFF50137FC859137FE81915F01B601C3
S11309D090E00E94850721102A9421E0821A910850
S11309E08114910471F7E8C0843611F0893641F519
S11309F0F80137FE07C060817181828193810C5FA9
S1130A001F4F08C060817181072E000C880B990B61
S1130A100E5F1F4FF32DFF763F2E97FF09C0909571
S1130A208095709561957F4F8F4F9F4FF0683F2E53
S1130A302AE030E0A3010E94C107882E861845C031
S1130A40853731F4232D2F7EB22E2AE030E025C0E5
S1130A50932D997FB92E8F36C1F018F4883579F02B
S1130A60B5C0803719F0883721F0B0C0E92FE061B4
S1130A70BE2EB4FE0DC0FB2DF460BF2E09C034FEA3
S1130A800AC0292F2660B22E06C028E030E005C037
S1130A9020E130E002C020E132E0F801B7FE07C0F7
S1130AA060817181828193810C5F1F4F06C06081D8
S1130AB0718180E090E00E5F1F4FA3010E94C10787
S1130AC0882E8618FB2DFF773F2E36FE0DC0232D72
S1130AD02E7FA22E891458F434FE0BC032FC09C0B8
S1130AE0832D8E7EA82E05C0B82CA32C03C0B82C51
S1130AF001C0B92CA4FE0FC0FE01E80DF11D8081D8
S1130B00803321F49A2D997EA92E09C0A2FE06C035
S1130B10B394B39404C08A2D867809F0B394A3FCEB
S1130B2011C0A0FE06C0B21488F4280C922C9B18A5
S1130B300EC0B21460F4B60180E290E00E94850712
S1130B40B394F7CFB21418F42B1802C0982C212CAC
S1130B50A4FE10C0B60180E390E00E948507A2FEC7
S1130B6017C0A1FC03C088E790E002C088E590E0CC
S1130B70B6010CC08A2D867859F0A1FE02C08BE222
S1130B8001C080E2A7FC8DE2B60190E00E948507D7
S1130B90891438F4B60180E390E00E9485079A94A2
S1130BA0F7CF8A94F301E80DF11D8081B60190E03E
S1130BB00E9485078110F5CF222009F442CEB601A8
S1130BC080E290E00E9485072A94F6CFF6018681A0
S1130BD0978102C08FEF9FEF2B96E2E10C944909B5
S1130BE0A0E0B0E0E6EFF5E00C943309EC016B0112
S1130BF06115710519F0FB01918380837E01FFEF7C
S1130C00EF1AFF0A0881802F90E00E943E07892B8B
S1130C1011F0E701F3CF0D3239F47E0182E0E80EE2
S1130C20F11C098111E008C00B3229F47E0192E025
S1130C30E90EF11C098110E0E701219743E050E03F
S1130C4060E770E0CE010E944707892BC1F4239628
S1130C5045E050E06BE670E0CE010E944707892B27
S1130C6009F42596C114D10419F0F601D183C08387
S1130C701111F6C060E070E080E89FE7FAC043E03D
S1130C8050E068E670E0CE010E944707892B59F4D2
S1130C90C114D10409F4E9C0F2E0EF0EF11CF6012D
S1130CA0F182E082E2C020E030E0A901C0E0D0E0BF
S1130CB0F70180EDA82EA00E89E08A1530F1912F5E
S1130CC09260B92E812F887012FF04C0811124C054
S1130CD0219622C081112197A5E0B0E00E9422094B
S1130CE0DC01CB01880F991FAA1FBB1F9C01AD011A
S1130CF02A0D311D411D511D283989E9380748073E
S1130D0089E1580748F0166006C09EEFA9120AC090
S1130D1013FD40C01860B12E8FEFE81AF80A008165
S1130D201B2DC6CF802F8F7D8534A1F580818D3218
S1130D3011F4106106C08B3221F0319661E070E04D
S1130D4004C08181329662E070E080538A3018F0EA
S1130D50E61BF70B1FC060E070E060389CE0790789
S1130D605CF4DB01AA0FBB1FAA0FBB1F6A0F7B1F1A
S1130D70660F771F680F711D3196DF0111978C91F3
S1130D8080538A3050F314FF03C071956195710943
S1130D90C60FD71F11FF08C0C114D10429F0CF0119
S1130DA00197F60191838083CA01B9010E94240846
S1130DB0212F2370233019F04B015C0106C04B0135
S1130DC05C01B7FAB094B7F8B09420E030E0A90120
S1130DD0C501B4010E941F08882309F43EC0D7FF4F
S1130DE006C0D195C195D10907E810E002C00FE90A
S1130DF010E06801F8E1CF1AD10890E2E92EF12C55
S1130E00CE15DF0574F0F801259135914591549183
S1130E10C501B4010E9461084B015C01CE19DF09D0
S1130E20EFCF04501109F594E7940C151D0541F713
S1130E308A2D880F8B2D881F8F3F49F020E030E0EA
S1130E40A901C501B4010E941F08811106C082E2F4
S1130E5090E09093370180933601C501B40109C035
S1130E6060E070E080E89FEF04C060E070E080EC38
S1130E709FE7CDB7DEB7ECE00C944F0991110C94C9
S1130E80CE08803219F089508550C8F70895FB01C7
S1130E90DC014150504088F08D9181341CF08B3539
S1130EA00CF4805E659161341CF06B350CF4605E6B
S1130EB0861B611171F3990B0895881BFCCFFC010B
S1130EC00590615070400110D8F7809590958E0F71
S1130ED09F1F0895FC016150704001900110D8F7E4
S1130EE0809590958E0F9F1F0895DC01FC01672F5C
S1130EF071917723E1F7329704C07C916D937083ED
S1130F006291AE17BF07C8F308950F931F93CF9351
S1130F10DF93FB01238121FD03C08FEF9FEF2CC0E2
S1130F2022FF16C046815781248135814217530719
S1130F3044F4A081B1819D012F5F3F4F3183208311
S1130F408C93268137812F5F3F4F3783268314C0CC
S1130F508B01EC01FB010084F185E02D0995892BBF
S1130F60E1F6D80116968D919C91179701961796E4
S1130F709C938E931697CE01DF91CF911F910F9181
S1130F800895FA01AA27283051F1203181F1E8941B
S1130F906F936E7F6E5F7F4F8F4F9F4FAF4FB1E068
S1130FA03ED0B4E03CD0670F781F891F9A1FA11D63
S1130FB0680F791F8A1F911DA11D6A0F711D811D64
S1130FC0911DA11D20D009F468943F912AE0269F29
S1130FD011243019305D3193DEF6CF010895462F88
S1130FE04770405D4193B3E00FD0C9F7F6CF462F69
S1130FF04F70405D4A3318F0495D31FD40524193D2
S113100002D0A9F7EACFB4E0A6959795879577958E
S11310106795BA95C9F700976105710508959B0115
S1131020AC010A2E06945795479537952795BA959E
S1131030C9F7620F731F841F951FA01D08950E9496
S11310404E0308F481E00895E89409C097FB3EF448
S113105090958095709561957F4F8F4F9F4F992301
S1131060A9F0F92F96E9BB279395F695879577957F
S11310706795B795F111F8CFFAF4BB0F11F460FF3F
S11310801BC06F5F7F4F8F4F9F4F16C0882311F097
S113109096E911C0772321F09EE8872F762F05C0AB
S11310A0662371F096E8862F70E060E02AF09A9546
S11310B0660F771F881FDAF7880F9695879597F93B
S11310C008950E9474080C94E8080E94DA0838F025
S11310D00E94E10820F0952311F00C94D1080C949F
S11310E0D70811240C941C090E94F90870F3959FE9
S11310F0C1F3950F50E0551F629FF001729FBB270B
S1131100F00DB11D639FAA27F00DB11DAA1F649FA6
S11311106627B00DA11D661F829F2227B00DA11D59
S1131120621F739FB00DA11D621F839FA00D611DDF
S1131130221F749F3327A00D611D231F849F600D00
S1131140211D822F762F6A2F11249F5750409AF029
S1131150F1F088234AF0EE0FFF1FBB1F661F771FB5
S1131160881F91505040A9F79E3F510580F00C9480
S1131170D1080C941C095F3FE4F3983ED4F38695A0
S113118077956795B795F795E7959F5FC1F7FE2B20
S1131190880F911D9695879597F908959927882723
S11311A0089597F99F6780E870E060E008959FEFE5
S11311B080EC089500240A941616170618060906EA
S11311C0089500240A9412161306140605060895B9
S11311D0092E0394000C11F4882352F0BB0F40F441
S11311E0BF2B11F460FF04C06F5F7F4F8F4F9F4F81
S11311F0089557FD9058440F551F59F05F3F71F003
S11312004795880F97FB991F61F09F3F79F0879569
S11312100895121613061406551FF2CF4695F1DFF2
S113122008C0161617061806991FF1CF8695710582
S1131230610508940895E894BB2766277727CB01B6
S113124097F908950E946409A59F900DB49F900D8D
S1131250A49F800D911D112408952F923F924F92C7
S11312605F926F927F928F929F92AF92BF92CF9232
S1131270DF92EF92FF920F931F93CF93DF93CDB73B
S1131280DEB7CA1BDB0B0FB6F894DEBF0FBECDBFB3
S113129009942A88398848885F846E847D848C8484
S11312A09B84AA84B984C884DF80EE80FD800C818D
S11312B01B81AA81B981CE0FD11D0FB6F894DEBF70
S11312C00FBECDBFED010895A29FB001B39FC00131
S11312D0A39F700D811D1124911DB29F700D811D5E
S10D12E01124911D0895F894FFCF26
S11312EA0100426974636F696E00000045746865A1
S11312FA7265756D00002025730057656C636F6D08
S113130A6520746F0043727970746F5469636B65F6
S105131A72005B
S9030000FC
