S015000043727970746F547261636B65722E73726563C2
S11300000C9434000C9449000C9449000C9449005D
S11300100C9449000C9449000C9449000C94490038
S11300200C9449000C9449000C9449000C94490028
S11300300C9449000C9449000C9449000C94490018
S11300400C9449000C9449000C9449000C94490008
S11300500C9449000C9449000C9449000C944900F8
S11300600C9449000C94490011241FBECFEFD8E032
S1130070DEBFCDBF11E0A0E0B1E0E0E7F4E002C0F4
S113008005900D92AC34B107D9F70E9434010C9459
S113009036020C9400009BB19F779BB988231CF413
S11300A09BB190689BB99BB19F7B9BB986FF03C0B2
S11300B09BB190649BB99BB19F7D9BB985FF03C0A5
S11300C09BB190629BB99BB19F7E9BB984FF03C097
S11300D08BB180618BB985B1826085B985E08A95E1
S11300E0F1F7000085B18D7F85B985E08A95F1F738
S11300F000000895CF93C82F85B1816085B985B17B
S11301008D7F85B98C2F0E944B008C2F8295807F28
S11301100E944B00CF9108950F931F93CF93DF93C9
S113012000D0CDB7DEB78C011A82198212C0E981E2
S1130130FA81E00FF11F80810E947A0089819A81FF
S113014001969A8389838FE391E00197F1F700C0C8
S11301500000E981FA81E00FF11F80818111E7CF6E
S11301600F900F90DF91CF911F910F910895CF932E
S1130170C82F85B18E7F85B985B18D7F85B98C2FC8
S11301800E944B008C2F8295807F0E944B00CF9160
S1130190089580EC0E94B7008FE391E00197F1F796
S11301A000C0000008952FEF81EE94E021508040BC
S11301B09040E1F700C0000085B18E7F85B985B11C
S11301C08D7F85B980E30E944B008FE39CE9019702
S11301D0F1F700C0000080E30E944B008FE193E040
S11301E00197F1F700C0000080E30E944B008FE10B
S11301F093E00197F1F700C0000088E20E944B00F1
S11302008FE391E00197F1F700C0000088E20E94BB
S1130210B7008FE391E00197F1F700C0000088E098
S11302200E94B7008FE391E00197F1F700C000004E
S113023081E00E94B7008FE79EE30197F1F700C0C9
S1130240000086E00E94B7008FE391E00197F1F788
S113025000C000008CE00E94B7008FE391E001979A
S1130260F1F700C000000895CF93DF93CDB7DEB758
S1130270E2970FB6F894DEBF0FBECDBF84E1E0E095
S1130280F1E0DE01119601900D928A95E1F784E187
S1130290E4E1F1E0DE01559601900D928A95E1F7D3
S11302A08AB180688AB98AB180648AB98AB1806265
S11302B08AB98AB180618AB984B1826084B984B10F
S11302C0816084B90E94D30088E291E00E948C008E
S11302D00E94C90083E391E00E948C002FEF33E277
S11302E084EF215030408040E1F700C0000081E0FD
S11302F00E94B7009FEF27EE33E09150204030403A
S1130300E1F700C00000A12CB12CCC24C394D12C63
S113031000E010E00115110581F57601EE0CFF1CDB
S1130320C601880F991F880F991F880F991FE80E1F
S1130330F91E81E090E08C0F9D1F8E0D9F1D0E9481
S11303408C000E94C90085E190E08C0F9D1F8E0DEA
S11303509F1D0E948C00CD2849F40F2EF3E0AF2E90
S1130360B12CF02DCC24C394D12C02C0C12CD12C9F
S113037083E0A816B10421F521C00130110501F56F
S113038080E491E00E948C000E94C9004AE050E0A1
S1130390BE01675D7F4F8AE090E00E94F601CE01C6
S11303A089960E948C009AEA26EE36E981E0915003
S11303B0204030408040D9F7000002C001E010E046
S11303C09FEF23E234EF915020403040E1F700C02A
S11303D0000081E00E94B7008FEF97EE23E0815088
S11303E090402040E1F700C0000094CF4532510511
S11303F020F4423010F00C940102FB011082CB0176
S11304000895BB274A3031F4992322F4BDE2909534
S113041081959F4F0C940D02BB27FB015527AA27FA
S1130420880F991FAA1FA41710F0A41B839550517D
S1130430B9F7A05DAA3308F0A95DA193009779F7F5
S1130440B111B1931192CB010C942602DC01FC0191
S1130450672F71917723E1F7329704C07C916D93F4
S113046070836291AE17BF07C8F30895F894FFCF65
S1130470426974636F696E00000045746865726553
S1130480756D000035343830322E38300000333288
S113049038362E323300000057656C636F6D65206B
S11304A0746F0043727970746F5469636B65720082
S10F04B053657420416C61726D3A0000C9
S9030000FC
