S015000043727970746F547261636B65722E73726563C2
S11300000C9434000C9449000C9449000C9449005D
S11300100C9449000C9449000C9449000C94490038
S11300200C9449000C9449000C9449000C94490028
S11300300C9449000C9449000C9449000C94490018
S11300400C9449000C9449000C9449000C94490008
S11300500C9449000C9449000C9449000C944900F8
S11300600C9449000C94490011241FBECFEFD8E032
S1130070DEBFCDBF11E0A0E0B1E0EEE5F3E002C0E9
S113008005900D92AC32B107D9F70E9434010C945B
S1130090AD010C9400009BB19F779BB988231CF49D
S11300A09BB190689BB99BB19F7B9BB986FF03C0B2
S11300B09BB190649BB99BB19F7D9BB985FF03C0A5
S11300C09BB190629BB99BB19F7E9BB984FF03C097
S11300D08BB180618BB985B1826085B985E08A95E1
S11300E0F1F7000085B18D7F85B985E08A95F1F738
S11300F000000895CF93C82F85B1816085B985B17B
S11301008D7F85B98C2F0E944B008C2F8295807F28
S11301100E944B00CF9108950F931F93CF93DF93C9
S113012000D0CDB7DEB78C011A82198212C0E981E2
S1130130FA81E00FF11F80810E947A0089819A81FF
S113014001969A8389838FE391E00197F1F700C0C8
S11301500000E981FA81E00FF11F80818111E7CF6E
S11301600F900F90DF91CF911F910F910895CF932E
S1130170C82F85B18E7F85B985B18D7F85B98C2FC8
S11301800E944B008C2F8295807F0E944B00CF9160
S1130190089580EC0E94B7008FE391E00197F1F796
S11301A000C0000008952FEF81EE94E021508040BC
S11301B09040E1F700C0000085B18E7F85B985B11C
S11301C08D7F85B980E30E944B008FE39CE9019702
S11301D0F1F700C0000080E30E944B008FE193E040
S11301E00197F1F700C0000080E30E944B008FE10B
S11301F093E00197F1F700C0000088E20E944B00F1
S11302008FE391E00197F1F700C0000088E20E94BB
S1130210B7008FE391E00197F1F700C0000088E098
S11302200E94B7008FE391E00197F1F700C000004E
S113023081E00E94B7008FE79EE30197F1F700C0C9
S1130240000086E00E94B7008FE391E00197F1F788
S113025000C000008CE00E94B7008FE391E001979A
S1130260F1F700C000000895CF93DF93CDB7DEB758
S113027064970FB6F894DEBF0FBECDBF84E1E0E013
S1130280F1E0DE01119601900D928A95E1F78AB1B1
S113029080688AB98AB180648AB98AB180628AB96D
S11302A08AB180618AB984B1826084B984B1816081
S11302B084B90E94D30084E191E00E948C000E94E2
S11302C0C9008FE191E00E948C002FEF33E284EFAC
S11302D0215030408040E1F700C0000081E00E94DE
S11302E0B7009FEF27EE33E0915020403040E1F714
S11302F000C0000001E010E09801220F331FC80184
S1130300880F991F880F991F880F991F820F931FB9
S113031021E030E02C0F3D1F820F931F0E948C00C0
S1130320012B19F401E010E002C000E010E03FEFFF
S113033083E294EF315080409040E1F700C0000028
S113034081E00E94B7002FEF37EE83E02150304068
S11103508040E1F700C00000CFCFF894FFCF4B
S113035E426974636F696E00000045746865726566
S113036E756D000057656C636F6D6520746F004387
S10F037E727970746F5469636B657200CF
S9030000FC
